:100000000A128A11FC2F00308A000408840A820731
:1000100000344C346F34733420346C3465346434BD
:100020007334203465347334743461346E34203462
:1000300065346E34633465346E34643469346434E6
:100040006F3473340A3400344C346F3473342034D6
:100050006C346534643473342034653473347434EC
:1000600061346E3420346134703461346734613407
:0A00700064346F3473340A34003432
:100F4E008316031398168312031398170800F000E4
:100F5E00831203130C1EAF2F700899000800F400C3
:100F6E007030F1007108F2000130F407FF307407A1
:100F7E0084000A128A1103200A128A11F1007108E4
:100F8E00F30073080319080073080A128A11AE27BA
:100F9E000A128A11BB2F0A128A11A7270A128A1166
:100FAE008316031386018312031386010130831601
:100FBE000313870083120313870183120313071889
:100FCE00EF2F86011C300A128A11B6270A128A11D7
:100FDE0083120313071CE42FFF30860001300A1220
:100FEE008A11B6270A128A11E42F83010A128A1176
:020FFE00D22FF0
:00000001FF
