:060000000A128A11F62F1E
:100F7C0083160313981683120313981708000A128A
:100F8C008A11BE270A128A11831603138601831253
:100F9C000313860101308316031387008312031396
:100FAC008701071CE32F70087104031DE32F013028
:100FBC00F0000030F1000718E12F071CED2F700333
:100FCC007104031DED2FF001F1010718EB2F7003D5
:100FDC007104031DF42FFF308600D72F8601D72F05
:100FEC00F001F101F201F301F401F50183010A12A0
:040FFC008A11C52F62
:00000001FF
