:100000000A128A11FA2F00308A000408840A820733
:1000100000344C346F34733420346C3465346434BD
:100020007334203465347334743461346E34203462
:1000300065346E34633465346E34643469346434E6
:100040006F3473340A3400344C346F3473342034D6
:100050006C346534643473342034653473347434EC
:1000600061346E3420346134703461346734613407
:0A00700064346F3473340A34003432
:100F36008316031398168312031398170800F000FC
:100F4600831203130C1EA32F700899000800F400E7
:100F56007030F1007108F2000130F407FF307407B9
:100F660084000A128A1103200A128A11F1007108FC
:100F7600F30073080319080073080A128A11A227DE
:100F86000A128A11AF2F0A128A119B270A128A1196
:100F96008316031386018312031386010130831619
:100FA60003138700831203138701831203130718A1
:100FB600E32F86011C300A128A11AA270A128A1107
:100FC60083120313071CED2F0130F5070318F60AE9
:100FD6000030F60775037604031DD82FFF30860010
:100FE60001300A128A11AA270A128A11D82FF5018E
:0A0FF600F60183010A128A11C62FCA
:00000001FF
