:100000000A128A11F62F00308A000408840A820737
:1000100000344C34653464347334203465346E34C5
:10002000633465346E346434693464346F347334E7
:100030002E340A3400344C34653464347334203440
:100040006134703461346734613464346F347334D0
:060050002E340A340034D6
:100F14008316031398168312031398170800F60018
:100F2400831203130C1E922F760899000800FA000E
:100F34007630F7007708F8000130FA07FF307A07B7
:100F440084000A128A1103200A128A11F700770812
:100F5400F90079080319080079080A128A119127FF
:100F64000A128A119E2F0A128A118A270A128A11DA
:100F7400831603138601831203138601013083163B
:100F84000313870083120313870183120313071CBF
:100F9400D52F70087104031DD52F0130F0000030E7
:100FA400F1000718D32F071CDF2F70037104031DF2
:100FB400DF2FF001F1010718DD2F70037104031D09
:100FC400EC2FFF30860001300A128A1199270A1289
:100FD4008A11C72F83120313860113300A128A1150
:100FE40099270A128A11C72FF001F101F201F301C6
:0C0FF400F401F50183010A128A11B52FE7
:00000001FF
